:020000042000DA
:1000000000980020A5040020AD040020C5040020B5
:1000100000000000000000000000000000000000E0
:10002000000000000000000000000000DD040020CF
:100030000000000000000000F50400205D1E00200C
:10004000272700200F2800200D310300FD27002066
:10005000892700208D310300212800202F2800202F
:10006000F9040020A91F00206F280020AD310300F3
:1000700057810200F9040020F9040020F90400204F
:10008000F9040020F9040020F9040020871A002058
:100090008B1A00208F1A0020931A0020971A002034
:020000042000DA
:1001600032000000690700202F240020252C0020E9
:10017000000000000000000063800200BD8002005B
:10018000650B0020FB80020019810200358102000E
:100190005D810200E12500200F0C0020510B0020A2
:1001A0005B0B002000000000000000003F0000008A
:1001B000F487002000080000680D0800900200008D
:1001C00068070800F405000004100800000800009B
:1001D000000000002000000048000000580000005F
:1001E0006800000004010000160100002801000062
:1001F0002E010000202A00008E2E000001000000C9
:1002000088130000B9240020E9600200FD93020079
:100210008312002019280300A57402006105002044
:1002200003000000D5200200392C0020040000004B
:10023000D74902000F490200F10C0020639102002F
:10024000B7910200BF910200078202007182020092
:10025000466C0020AD8302009384020041850200B9
:1002600015860200378602005F860200758602004E
:10027000F9870200258902005D8A0200D38C020002
:10028000098D02000F900200438D0200278E0200AC
:10029000F98E0200478F0200C70A0020D58F0200A6
:1002A00049510200775102002F5202001000000055
:1002B00020030000803E000000000000000000005D
:020000042000DA
:1002C000504600030003983A6400F401B80B000C98
:1002D000B80B120030003000CD009A01120024004B
:1002E00030006400B0001800280012001200D0078F
:1002F0000000FFFF00000000000000000000000000
:100300001F00000244413134353833000000000042
:1003100000000000000000000000000000000000DD
:0403200000000000D9
:020000042000DA
:10034000FFFF010000C201000000000000000000EB
:100350000000F4010100010A0009090309180F183F
:100360000A18F5FE00000000000000000000000078
:10037000000000000000000000000000000000007D
:10038000000000000000000000000000000000006D
:1003900000000000000000000000434250333130F4
:1003A00023303100000000000000000000000000C9
:1003B000000000000000000000000000000000003D
:1003C000000000000000000000000000000000002D
:1003D0000000000000000000000000CAEA01D00791
:0403E000064064323D
:020000042000DA
:100440000348854606F086F800480047C7200200AA
:10045000009800200F4906200880FF200E49013037
:1004600008600E4988683E2290432E308860002242
:10047000052000070280018A0F231B021943018215
:1004800001210748C90404C1401E0028FBDA62B6F6
:10049000704700000034005080E100E0003300505D
:1004A000FF0B00001548804715480047042071469F
:1004B000084203D0EFF3098012490847EFF30880A0
:1004C0001049084704207146084203D0EFF3098021
:1004D0000D490847EFF308800B490847042071468F
:1004E000084203D0EFF3098008490847EFF308807A
:1004F00006490847FEE7FEE7FEE700005504002036
:10050000410400202905002011050020FD0D0020D8
:100510000349C8200880034908204880FEE70000FE
:10052000003100500033005005200007018A0422EA
:1005300011430182018A0222114301820189402272
:1005400011430181054A01211160418A0122890874
:100550008900D203114341827047000080E200E02D
:1005600070B516460C460546012802D00C2D26D142
:100570000DE006227349744805F0FEFF00281ED0E6
:1005800006227149304605F0FDFF062012E06F4D4E
:1005900029680878C00610D52078202803D20020CA
:1005A0002070042070BD0A7E30463A3105F0EAFF23
:1005B0002868007E2070002070BD012070BD32468A
:1005C0002146284605F0E4FF70BD70B560486149DA
:1005D000C405228880252A4322805F4A53891B074D
:1005E00001D4401EFAD25D4A01201060062256480E
:1005F00005F0C8FF2088A843208070BD70B5002496
:1006000005200007018A88B0022291430182818A75
:100610000907FCD5418A20221143418200F05BF892
:10062000182101A805F0BAFF1F211822090301A80B
:1006300001F073FD68460079702803D06846407960
:10064000522814D104A806224549054605F094FF16
:1006500000280CD006223B49284605F08DFF0028D3
:1006600005D006222946384805F08CFF012401F008
:1006700011FE01F05FFC0120032200900023120212
:100680000321022001F03DF90025012676022B46C8
:10069000324629460220009501F033F90023324604
:1006A00009210220009501F02CF900233246042193
:1006B0000220009501F025F923482A4A0178D177D4
:1006C0002849427820310A7082784A70C078887050
:1006D000204608B070BD7FB5012003252D02009093
:1006E00008232A460321022001F00BF900240723E6
:1006F0002A4621460220009401F003F906232A46E7
:1007000009210220009401F0FCF8052300220421B5
:100710000220009401F0F5F80221684601730321DC
:1007200041730023009401941A46194603A80294C9
:1007300001F0AAFBFF210131480201F071FC01F038
:10074000B5FD7FBD383E030078850020C006080057
:10075000A0860100D47F04002000005000800040EB
:10076000406C00208003002008B500F05DFA0525EC
:1007700000242D07C826654F09E00421684600942F
:1007800005F012FF002817D000F0ABF914E028891B
:10079000000611D501208007006B00040CD405F081
:1007A00009FFC00708D1042005F00AFF009005F0FA
:1007B0000DFF00980028E0D172B602F0A7F80428D7
:1007C00006D002280BD0032809D0012810D010E051
:1007D0004F480078012801D0032000E0022000F0FB
:1007E0000BF830BF4B490A69042082430A6100E0DC
:1007F00030BF62B63E80CAE7F8B5044668460525B4
:1008000004702D07288A0421084328824248434F58
:10081000C0690126012811D9032C18D105F0DCFE8E
:10082000002814D005F0DEFE002810D0032005F0CB
:10083000DFFE00280BD00220387009E0032C06D11F
:10084000032005F0D5FE002801D03E7000E0022410
:1008500068460470204600F023F800203049022C3E
:10086000087001D0032C1AD12E494A88FF23013386
:100870009A434A806A882C4B1A804A8832434A80BD
:1008800000900099491C00911429FADB69898908B4
:100890008900491C698169894906FCD56880F8BDD1
:1008A00010B5022801D0032828D11A490B69042267
:1008B00013430B61052109074B8A2024A3434B8274
:1008C0000B8A022423430B8210230228488A16D065
:1008D000904348827F220888920180242043088028
:1008E0000020401CC0B20A28FBD3488A1843488223
:1008F0000E48521E42610888A043088010BD104374
:100900004882488A9843488210BD00000031005058
:100910005402080000ED00E0E0010020C4060800D9
:10092000C085002020000050C285002000800040CB
:10093000704700002C480178002902D080214170C6
:1009400070472A49002008702949C8707047264816
:100950000178002902D0812141707047234901208C
:1009600008702349C87070471F480178002902D0D9
:100970008221417070471D49022008701C490120E6
:10098000C8707047002804D0012803D0022802D183
:10099000EAE7CFE7DBE77047144900200978002930
:1009A00004D0012903D0022900D102207047012080
:1009B00070470D48C07870470020EFF31081012286
:1009C00082F31088052212071289120605D40948FD
:1009D000028901231A4302811846002900D001210F
:1009E00081F31088704700007F85002054020800C2
:1009F000C60608000033005070B5052000070189C5
:100A000030229143018101898022114301810189B2
:100A100089088900491C0181018908231943018142
:100A2000B9490C8814430C80448A9C43448205894C
:100A3000402425430581058A0426B5430582858A1D
:100A4000AD07FCD5B14E002575600E8801252E43FB
:100A50000E804D89AE05AE4D0E8801D52E4300E0C7
:100A6000AE430E800D887826B54328350D800D885D
:100A7000062635430D80458A1D4345820B889343E6
:100A80000B800289A24302814889800503D59E49D3
:100A9000052060318880012080070168821591431C
:100AA00001609C4801683F22520291434214891818
:100AB0000160016802031143016070BD10B59648E2
:100AC00005F09CFD10BD70B58F4C6088C006050F09
:100AD00005F09AFD61881E2291436A0011436180EE
:100AE00070BD70B58D490120C863C86B0028FCD16A
:100AF00001208007C1698A4800220368994200D218
:100B00000260824C01266378864D002B04D062700F
:100B1000016005F07FFD11E0026819238A1ADB01EC
:100B20009A4214D3016005F075FD2988884201D9E5
:100B3000411A00E0091A89B2182908D32880012037
:100B400005F06EFD05F072FD002800D1667070BDE5
:100B500008B505F071FD009008BD08B505F072FDFF
:100B6000009008BD08B5704901204A695206D20FAD
:100B700013D04A699206D20F0FD000220A61009268
:100B8000FF225F32009B5B1C00939342FAD34969BA
:100B9000C907C90F02D005F05BFD002008BD1FB5D5
:100BA000684601F0DCF8009805F058FD1FBD70B5EF
:100BB0005E4900200A78002A0DD0584A0120D063EF
:100BC000D06B0028FCD101208007C069584A126808
:100BD000904201D2012070BD00200870FFF7DCFEBA
:100BE0000824544D022803D0FFF7D6FE012809D16E
:100BF0002C8005200007818A8906FCD4418A802246
:100C0000914341826C80002070BD0020704710B578
:100C1000494900200860FFF751FF01208007016B60
:100C200049004908016310BDF8B501203F49434C14
:100C30000870C8262680002565803E480827478022
:100C400005F012FD00F03CFE0D207901800105F059
:100C500011FDFFF7D3FC002801D1FFF7B6FC04F02B
:100C6000D1FC012005F0FAFC01F044FBFFF7C4FEC3
:100C7000042000F041F8072000F03EF80A2000F0C0
:100C80003BF8062000F038F80B2000F035F8012082
:100C900000F032F8022000F02FF8002000F02CF8CD
:100CA0002748006805F0ECFC00F08BF800F0D4FD5C
:100CB000012080070168821511430160FFF76FFF73
:100CC000FFF738FE02F086FE05F0A3F8FFF79FFF5E
:100CD00005200007C5820C494888E0229043A030D7
:100CE0004880012005F0D2FC268012484780F8BDDC
:100CF00010B505F0D1FC10BDC106C90E0120884019
:100D000010490860704700002000005084850020D2
:100D10000010000000020040E2040000C00000409B
:100D20007C04080078040800001000507E85002034
:100D300070780020003300508C0308000031005010
:100D40000490002080E200E0FFB581B01F460E460F
:100D50004D780C78002005F0A5FC042824D000284C
:100D60001DD121E04148816E2E20604309188888FA
:100D70000207120F130005F09BFC070505050F0580
:100D80000F050F008204920E062A05D27278012AFE
:100D900012D0072210438880641C6407640F284621
:100DA0006D1EEDB20028DDD13B463146039A019815
:100DB00005F084FC05B0F0BD204605F085FC002060
:100DC000F8E770B52A480378021D0021294D07E095
:100DD000CC00165D002E01D12418A560491CC9B2B3
:100DE0009942F5D370BD028908892349101A80B24F
:100DF000884201D90120704700207047816920395D
:100E0000897F082905D21B4A890010325158816117
:100E10007047FEE71A48194901611A4941611A49A8
:100E200081611A49C1611A4901621A4941621A492C
:100E300081621A49C1621A4901631A4941631A4918
:100E400081631A49C1630E481949403081601949CC
:100E5000C16001201849C00608601849CA69120219
:100E6000120ACA611449803908607047D802080024
:100E700004060800946D00203075000094270300DC
:100E80000084004062B600DF28A30200704701DF43
:100E90001CCA0200F8BD02DF40CB0200F5E703DF09
:100EA00084D4020004DF89B0941B030005DF00B581
:100EB000EC0C030070BD07DF80E100E000ED00E016
:100EC00070B516460D46104605F0ECFB002869D0BB
:100ED000340A304605F0E6FB012812D0A87A1E2815
:100EE00011D029460A310E2845D019DC801E030096
:100EF00005F0DEFB0B255829582D58315839583D3F
:100F00005800022070BD3146274805F0E3FB002160
:100F1000204605F0E5FB0221304605F0E7FB41E005
:100F200018283CD006DC102819D012282BD01628FF
:100F300038D130E0522822D0D22833D127E02046C1
:100F400005F0DAFB2EE0204605F0DCFB2AE0204627
:100F500005F0DEFB26E0204605F0E0FB22E020461F
:100F600005F0E2FB1EE0204605F0E4FB1AE0204617
:100F700005F0E6FB16E0204605F0E8FB12E020460F
:100F800005F0EAFB0EE0204605F0ECFB0AE0204607
:100F900005F0EEFB06E0204605F0F0FB02E02046FF
:100FA00005F0F2FB002070BD01280000F8B50D46E9
:100FB000064681002B48EA884458521C20686B89F9
:100FC000018F294F51430091014640314A89C98917
:100FD000511A8AB2991A89B2B94214D29A4212D0DD
:100FE000294605F0D7FB2D892049009805F0D8FB4C
:100FF0002818801C4034E0823002401C80B204215A
:1010000005F074FBF8BD2821304605F0CFFBF8BD94
:10101000F8B50546870013480C46C059C9880068D2
:10102000114E024640325389D2899A1A92B28B1AD3
:101030009BB2B34211D20B4E8A420ED005F0BCFBDC
:10104000F05905225F30611C05F09CFA2802401C13
:1010500080B2052105F04AFBF8BD2821284605F09D
:10106000A5FBF8BD4C030800FF7F0000102700001F
:1010700070B50446007800250D2801D00A2200E052
:1010800002225A494B7A002B06D00D2804D0637CEB
:10109000032B01D0432551E0097A8A4339D10D2829
:1010A00009D00E2802D00F2803D134E0607C032839
:1010B00004D3402542E0607C0328FAD8A07C0428B1
:1010C000F7D20A2908D0607C012822D0022820D03B
:1010D0006078032809D811E005F074FB012806D1D7
:1010E0006078032803D0002801D0492526E005F0C8
:1010F00069FB002802D160780228F6D83020035D11
:1011000022462046E17C3132143000F019F80546C1
:1011100014E0422512E005F055FB012807D1607864
:10112000052804D1A01D05F053FB0028DDD005F0F3
:1011300049FB002802D160780228D6D8284670BD25
:10114000FFB5002086B001216A4611700446059162
:101150000021002C06D0089D099A1F239A4234D9F9
:10116000402032E01C23069D079AF7E76B185E7853
:10117000330005F09DFA1D261010101010101010ED
:101180001026262626262626262626262626101041
:10119000101010102600059B03E06F46FF5CB7425D
:1011A00004D05B1E5BB2002BF7DA03E0002B01DBFF
:1011B0004A2006E0059B6F46FE54059B5B1CDBB294
:1011C00005936B5C491C5918C9B2914201D20028A1
:1011D000CCD0914202D04A200AB0F0BD641CE4B2E7
:1011E000022CF9D20028B3D0F6E7000098050800D9
:1011F00070B5EFF31085012080F31088264805F0C4
:10120000EDFA0446002D1DD0012080F31088002C3B
:1012100023D020462038C08B204988421DD16189C7
:10122000208905F0E1FA05000ED021461031A3898E
:1012300062892089A847002806D001280DD00228FD
:101240000BD105E00020E0E7204605F0D3FA04E0EA
:10125000114821460C3005F0D3FAEFF31084012039
:1012600080F310880C480068002802D1012005F0A6
:10127000CDFA002C03D0012080F3108870BD00202F
:10128000FAE710B5BC21064805F088F905490120A8
:1012900005F0C2FA10BD0000A80508003883000060
:1012A00004060800F111002000B5027900211300A6
:1012B00005F0FEF90C340707353520353535353561
:1012C00027344279042A27D8C279530707D0520716
:1012D000520F012A03D0042A01D0052A1CD1827999
:1012E000002A01D0012A17D1007AC01F0A2816D37C
:1012F000062114E04279521E0A2A10D308224271B4
:101300000DE0407942070AD04007400F012806D07F
:10131000042804D0052802D00A2100E0072108464D
:1013200000BDF3B581B001980C460102CA1D02232D
:1013300032480E3105F076FA04700199054602270D
:101340002F488E00002C06D0042C16D0062C10D06E
:10135000072C3FD108E0815905224968897C11405A
:1013600069708059C77335E0084605F061FA687006
:1013700030E080590F21C1732CE004468059406849
:10138000417C012902D1007E01280FD0019805F08F
:1013900055FA01210028A0590BD04268D07D0028C1
:1013A0001CD001281AD004280DD00FE0002068704E
:1013B0000DE04068C27D022A01D0042A06D1007CDB
:1013C00002280BD102E0107C022807D06F70A159CF
:1013D0000320C873284605F037FAFEBD6970F6E7AA
:1013E00001460A780120042A01D900207047497873
:1013F0000029FBD00129F8D170470000021C000031
:1014000028050800FFB589B00D4600206946059003
:1014100008720B98000A009005F010FA07460B9826
:1014200005F040F900287DD00B982978000A840047
:10143000784E012963D0042904D0062948D0072911
:1014400068D125E03059C17B032901D0042961D13D
:10145000697800291AD040681022A91C05F092F87A
:10146000002F06D03159C87B032807D0042808D0A4
:1014700050E03059C07B032803D04BE00B20C873E9
:1014800048E00521009805F0E5F943E00120B6E0C9
:101490003059C07B0E283DD1009805F0C9F90021D4
:1014A00003E02A18401C9170C0B21028F9D3688A52
:1014B00069460883294606A808221431023005F03F
:1014C00061F806ABAA1C3946009805F0C9F921E07D
:1014D0003059C07B0F281DD1AA1C0A21009805F0A5
:1014E000C5F9002F04D03946009805F0C5F911E080
:1014F00000231A463946009805F0C4F90AE0012F86
:1015000008D10B9805F0CEF801281CD0002801D096
:10151000022005906846007A002811D002AA052111
:10152000009800E00CE005F0A1F96846027A60201E
:1015300002436846027201233946009805F0A2F979
:1015400005980DB0F0BD3059C07B0228E2D1687813
:10155000002851D002210B9805F0C8F83059072215
:101560004068A91C173005F00DF8E878002804D170
:1015700030594068407C01283AD0009805F088F93D
:10158000002837D0297A009805F088F9002833D050
:10159000009805F089F90121009805F08BF90028E1
:1015A0002CD030594068417E00292BD0042929D005
:1015B000C17E027D1140C17630594068017F427D75
:1015C000114001776846007A0028A7D130590221DE
:1015D00042680098173205F049F9305941684031A6
:1015E000897B002913D004210098FFF79AFE91E728
:1015F000022004E0062002E0082000E00320694603
:1016000008728BE70021C17630594068D9E70B2179
:10161000C1737FE72805080010B50C4605F050F9A6
:1016200021888A00954989580968002902D0944B7D
:10163000C968995010BDF8B50E461046150A05F058
:1016400031F8AC008D4F002817D0142815D015287C
:1016500009D038596030C07BC00606D53D212846E8
:1016600005F0A4F809E0022008E005F02FF90128B0
:1016700003D131462846FFF799FC00203959096803
:10168000002902D07E4AC9681151F8BDFFB50F4646
:101690001546110A794A8800125881B012681E4610
:1016A000002A01D0D46803E0754A0023145813506F
:1016B000002C18D0201F4288724B9A4213D1008808
:1016C000602810D12046403002898A420BD18088A0
:1016D000002808D0A068002802D0204605F0FCF8B9
:1016E000204605F0FFF833462A463946019805F0B2
:1016F000FFF805B0F0BDF8B5160A604CB5006059AA
:10170000174600281CD04030017E104604F0EEFF42
:10171000384604F0C7FF012802D006280FD108E0A0
:1017200061596031C87B020709D5F7221040C873A0
:1017300005E060598030417C304605F037F80020E4
:10174000F8BDF0B50646050285B0681C009080B271
:10175000014602904C4804F0BDFF0121029804F0BC
:10176000C5FF05F0B3F8454CB7000128E05903D098
:101770006030C17BE72214E06030807B002809D014
:101780007D2252014048029905F0B8F803210298E1
:1017900004F0ACFF304605F0B7F8E0596030C17B8B
:1017A000EF221140C173E1596031C87B420711D566
:1017B000FB221040C8730098ED1D82B2324800240D
:1017C000A9B204230D3805F02DF84680047005F009
:1017D0003BF88EE700220121304605F09BF888E7B0
:1017E00010B51046140A04F05DFF0B280CD02349F5
:1017F000A00008586030C07BC00603D53D212046BC
:1018000004F0D4FF002010BD2046FFF79AFFF9E74F
:1018100070B510460D46140A04F044FF002819D094
:10182000142817D015280BD01449A0000858603090
:10183000C07BC00606D53D21204604F0B7FF09E075
:10184000022070BD05F042F8012803D12946204648
:10185000FFF7DEFB002070BD70B50C480378021D59
:1018600000210B4D07E0CC00165D012E01D124189C
:10187000A560491CC9B29942F5D370BD4C0308005C
:101880009885002038830000240400000406080026
:10189000BC6F002005200007018830221143018021
:1018A0000188032211430180704705200007018849
:1018B00030229143018001888908890001807047A6
:1018C000704710B5032800D104207C4C400100195A
:1018D000490008181A43C28010BD032800D1042013
:1018E000764A4001801801228A408280704703288E
:1018F00000D10420714A4001801801228A404280B0
:10190000704770B506460498144600280D463046C8
:1019100002D0FFF7ECFF01E0FFF7DFFF2246294688
:101920003046FFF7CEFF70BD032800D10420634A84
:1019300040018018008801228A40104000D0012018
:101940007047FFB583B05EA0006800901046133862
:10195000FF2601368640019014460D9FB0B200F07C
:101960009CF8002F01D0012100E00021554D81405D
:10197000A889B0430143A9813F2000F08EF8874039
:10198000A889800980010743AF81B0B200F085F8D3
:101990000C998140288AB04301432982012601998C
:1019A00030468840074680B200F077F806998140BB
:1019B000288AB843014329823F2000F06EF803993A
:1019C0006A46525C0499511881403E486200403892
:1019D0001018428B9209920111434183A007C20E55
:1019E000FF21914080209040002C0BDA2207120F3B
:1019F000083A9308344A9B009A18D3698B430343EF
:101A0000D36107E0A308314A9B009A1813688B43FF
:101A100003431360E006C00E86402D48066007B001
:101A2000F0BD70B501242146133881400D4688B2BF
:101A300000F033F884402348C189A9430C43C48192
:101A400070BD0246133A042A04D8224A8000801846
:101A500080384163704710B50446133804280AD80B
:101A60002046FFF7DEFF1B49A00040188038406B7E
:101A7000002801D0804710BDE106C90E0120884032
:101A80001549086010BD1320E5E71420E3E7152091
:101A9000E1E71620DFE71720DDE700280AD0411E26
:101AA0004840C003010C002001E04908401C002907
:101AB000FBD100E0102080B27047000000300050E1
:101AC00001090F190014005000ED00E000E400E0EF
:101AD00000E100E02090002080E200E0E12110B56C
:101AE0008900884208D3401A64214843FF218E317F
:101AF00004F016FFC0B210BD002010BD10B51F4984
:101B0000498989050BD5FF21B131884205D3FF38BA
:101B10006421B138484389000AE0002010BD5521F6
:101B200009018842F9D3401A64214843FF216131F9
:101B300004F0F6FEC0B210BD10B5044600F081F806
:101B4000032C11D10D48408980050DD5012000F0EE
:101B50004DF880B200F010F8012C07D0022C05D00F
:101B6000032C06D0002010BD0020F0E7FFF7B6FFE1
:101B700010BDFFF7C3FF10BD7047000020000050EC
:101B800008430121890303460B4341490B80414B24
:101B900018430880092002434A8070473C490A885C
:101BA0000F239B0100079A43800D02430A80704770
:101BB00037483949028802231A430280491E02D35A
:101BC00002889207FAD400210181408970470AE017
:101BD00000BF00BF00BF00BF00BF00BF00BF00BF0D
:101BE00000BF00BF00BF401EF2D2704770B5022296
:101BF000510204464E003046FFF7C2FF1420FFF7A3
:101C0000E6FF002C01D0092000E00020FFF7C6FF0E
:101C1000FFF7CEFF05460120FFF7D9FF0222002182
:101C20003046FFF7ADFF002C01D0092000E0002076
:101C3000FFF7B4FFFFF7BCFF4019154A00211180E0
:101C400070BDF0B5124C154820801420FFF7BFFF7F
:101C500001256D02A580E5802088E90008432080E9
:101C600020888E10B0432080FFF7A2FF074620880F
:101C700030432080FFF79CFF0246780071424018F5
:101C8000281A52005118691AA080E180F0BD0000A6
:101C90000015005001400000A0860100014800002E
:101CA00008B589210520000701810121634A490304
:101CB00011800188802211430180018889088900F0
:101CC00001805F48018A02221143018200F03CFB3F
:101CD00004F02CFE04F030FE0020694601E0088884
:101CE000401C088008889128F9D308BD08B55549DB
:101CF000002008804880554A534BD380FF23D233BD
:101D00001381C880C3215180514A0821118069463E
:101D1000088003E06A461188491C118069460988D9
:101D20009129F7D36946088003E06A461188491C67
:101D30001180694609889129F7D3694601E008882E
:101D4000401C088008889128F9D308BD414A50807A
:101D5000918001201080D088C007FCD17047F1B578
:101D6000FFB0FFB094B011AC35480494008AA41CB5
:101D70001090FFF795FF334801880F9141880E912D
:101D80003249CA880D920A890C92C2880B92408B04
:101D90000A9031484088099048888446FFF7A6FF9A
:101DA00000252B46FF2111A8FFF7D0FF00210A468E
:101DB0000846049E275C365C7E40F607F60F8E4090
:101DC0001643491CC9B2F2B2082906D1FFA9C96C51
:101DD0004A556D1C0021ADB20A46194FC82620375E
:101DE0003E801030FF2680B2B600B042E1D95B1CC5
:101DF0009BB2022BD6D312491098088214490020B6
:101E0000088010480F9901800E9941800F490D9A62
:101E1000CA800C9A0A810B9AC2800A9A42830E4A9F
:101E2000099850806046488005200007018880227C
:101E3000914301807FB07FB015B0F0BD000200403B
:101E4000E0300050002400508080000060280050E6
:101E50002020005000350050002600500248006845
:101E6000002800D0004770473490002010B54C483F
:101E700041780078FFF731FD10BD10B54848417832
:101E80000078FFF734FD10BDF8B50E4615464449FD
:101E90000278079F0A7040781C464870FFF7EDFFF4
:101EA0000520000781880122D202114381803D482C
:101EB00001884908490001800188FF22813291434D
:101EC000F20111430180018840229143AA0111438C
:101ED0000180018804229143A200114301800188FE
:101EE00002229143069A5200114301800188012287
:101EF00092039143BA031143018001881822914350
:101F0000089AD20011430180018801221143018007
:101F1000F8BD24490A88520852000A800A88FF2323
:101F200081339A43C00102430A800888012210438A
:101F30000880704710B51B48018849084900018096
:101F40000520000781880122D20291438180144834
:101F500041780078FFF7CBFC10BD10B51149002384
:101F60000A88D205920F012A01D9040C8C8048807E
:101F700008888004FCD50120C880012A01D98888FE
:101F800003044888C01810BD10B50446FFF76EFF63
:101F90002046FFF7E2FF0446FFF76FFF204610BD23
:101FA000389000200012005010B5FFF77EFC05218C
:101FB00009078888174AC30B104618D0164B1C888F
:101FC000640714D51178890710D5198802221143A6
:101FD000198019884908490019804468002C05D0E7
:101FE000985E0421595E0A229A5EA04710BD898836
:101FF000C906FBD51178C907F8D0084901228A80A3
:102000000A8880239A430A8080680028EED080479F
:1020100010BD0000B08500200002005000010050FB
:10202000B14AD1609060704710B50120FFF771FF91
:1020300005200002FFF7A8FFC0B210BD70B5002454
:10204000AA4DFFF7F1FFC00704D0641CAC42F8D3DF
:102050000020C04370BD70B5FFF7F0FF002817D116
:10206000FFF757FFFFF702FF9F20FFF776FF0020E3
:10207000FFF773FF05040020FFF76FFF04022C43F6
:102080000020FFF76AFF20430546FFF7F6FE2846CB
:1020900070BD70B5FFF7DFFF934C954A0021142304
:1020A0004B43D5589B185B681D4003409D420ED1A1
:1020B000142308B24B4320809B189D68A560DB6801
:1020C000E360142358438018606048B270BD491C17
:1020D00089B20429E3D300206060401E70BD70B552
:1020E000FFF7ACFF002815D1FFF713FF7F4E002547
:1020F0000620FFF749FF0024FFF796FFC10703D131
:10210000800701D5002070BD641CB442F4D36D1C5F
:10211000322DEDD30020C04370BD70B50646724825
:102120000D4680685119814201D9441B00E01446D4
:10213000FFF784FF00281AD10220FFF7EAFEFFF71D
:1021400095FE0321284609060843FFF706FF0020F5
:10215000FFF7DFFE002505E00020FFF7FEFE3070F0
:102160006D1C761CA542F7D3FFF787FE204670BD95
:1021700070B505465C480E46C0681446824200D9D8
:1021800084B2FFF75BFF00281ED1FFF7A8FF0028ED
:102190001AD10220FFF7BDFEFFF768FE012130468D
:1021A00049060843FFF7D9FE0020FFF7B2FE05E01D
:1021B00028786D1CFFF7D1FE641EA4B2002CF7D165
:1021C000FFF75BFEFFF73AFF70BD70B50D460446A2
:1021D000FFF785FF002802D00020C04370BD022019
:1021E000FFF797FE28062043FFF7CEFEFFF726FFF6
:1021F00070BD10B50024FFF721FF002811D1012088
:10220000FFF787FEFFF732FE09200003FFF7A5FE68
:102210000020FFF7A2FE0020FFF79FFE84B2FFF729
:102220002CFE20B210BDF7B582B02F4F0E460091A4
:10223000F96814460D46304604F0B2FA401C684373
:10224000451E0020FFF765FEB868801BA04200D243
:1022500004462646002719E000988019A84202D9B2
:1022600000982E1A761C0298B2B2C0190099FFF796
:102270007FFF002803D00020C04305B0F0BD681CDC
:1022800000901948BF19C0682D18E61BA742E3D378
:102290003846F2E710B5FFF7D1FE002805D1FFF769
:1022A00038FEB920FFF770FE002010BD10B50020E9
:1022B000FFF72FFEAB20FFF767FE002010BD1FB514
:1022C0006A46517310730020009001900346024645
:1022D0000146029003A8FFF7D7FDFFF7E7FFFFF7DE
:1022E000D8FE04B010BD00003C900020400D03005B
:1022F000CC6F002030B58E498E48CA0514888023E3
:102300001C4314808C4C65892D0701D4491EFAD2D8
:102310008A4C012121608A4C0188218089494088AA
:10232000088010889843108030BD002070477047A7
:10233000704770470020704701218907086B07220A
:10234000104308637047704730B580497E48086085
:102350007F494C2008807E4C7E4B203C23827F4965
:102360007D4848807F487E4901807D491931418000
:10237000222141818121890001827B4941827B495F
:102380000183794911314183764A7949203291801C
:102390004122784912018A80774ACA80764D1035E9
:1023A000CD810A824A82921C8A826A1FCA82FF22D7
:1023B00046320A83714A4A83714A59211180704911
:1023C000704D20310D8043254D806F4D5582D522B3
:1023D0008A80FF22D3320A816C4A4A816C4A8A8100
:1023E0006D4A6C4911805A496C4A60394A80CA88E2
:1023F00010252A43CA80634A0A3A0A81544D684A22
:10240000403D6A80638208224A814E495C4A0988BD
:10241000403A11824A49634A098811806249097821
:10242000002901D03021018330BD4008704700B53C
:102430008BB05E4A42625E4A82625E4A42615E4A96
:10244000C2625E4A02605E4A02625E4A42605E4A60
:10245000C2613E4A3C48002110603C484038026B53
:1024600003129A430263426B1F231B049A43032304
:102470001B04D218426355480268C3129A43026093
:10248000026803139A43026068464154491CC9B26A
:102490002829FAD3014628224D4804F073F8FFF7A3
:1024A00053FF04F0B7F84B490880002004F0B8F857
:1024B00004F0BCF80BB000BD10B5244A0F2122482F
:1024C0000902106021484038426B1F231B049A43C5
:1024D00003231B04D218426300060268D208D2000C
:1024E000026005200007028992089200521C0281B6
:1024F000028908231A430281028A0A4302820E4893
:102500004189890504D501887822914308310180E9
:10251000FFF71AFF3048006F0078002804D02F48DA
:1025200000880B496039C880012004F0AFF810BD65
:10253000A0860100087F04002000005000800040B9
:10254000560208004A0308004C055407800000406A
:10255000602C00507F7F0000AC290000002200505A
:1025600009090000002400502204000030D00000BF
:10257000EE110000002500502E0200004420000053
:10258000402800500D95000002420000E4DC0000ED
:102590001092000053780000002A00508B100000B9
:1025A0009DD5000000260050BC8500202B23002074
:1025B0002F23002035230020392300203123002041
:1025C00047230020332300202B240020000200405A
:1025D0002000080078040800E001002052040800F0
:1025E00010B50124A407A06BFEF7B7FAB84904F0B0
:1025F000D7F827221201511A00D10121B54A5060A3
:102600001160206B082188430843206310BDF0B59A
:1026100087B000246A461472AF490A68002A5DD068
:10262000114640318B7C002B58D0AC4B012813D085
:10263000108D1A460007803A0125126FC00EED0476
:102640004019105A6A46800B10711079002845D045
:102650001079012802D00DE0D86C09E008894E25D8
:1026600068439F4D1A684019105ACA7C000A801AA4
:102670006A461072107A002829D09A4A9948603A1E
:10268000007B956E05E02E224243AC18401C4007AB
:10269000400F6F463A7A561E3E72F4D2A278540624
:1026A000640E3C713A79D406E40E3C769A692E2386
:1026B00058438B4B463BC018105A3A46C006C00FD1
:1026C00038713879002802D1107E002806D0087DA4
:1026D000002803D1C87D08221043C87507B0F0BD9B
:1026E00010B5052000074189890708D0418989086C
:1026F000890041817C494A88520852004A800189F8
:10270000802211430181018A042291430182818A3E
:102710008907FCD504F016F90120800701690169D9
:102720004907FCD510BDF8B5704EF08800282AD1B5
:1027300001200527F0803F077889800720D0B88ADC
:10274000400701D502F05EFF674D288880210843CD
:102750002880674CFF20608004202080FFF79AF8D3
:102760007D21C900E088A288000480188842F9D938
:1027700005202080B08878802988802081432980A6
:102780005C4910200860F8BD70B5FFF78EF8FFF7C0
:10279000A7FF0026554C0520E6800007418A8022CD
:1027A0009143418254480189490849000181D0057B
:1027B000816904221143816104F0CAF84D49102057
:1027C00080310125086004F0C9F804F0CDF84648CE
:1027D00026704089800510D5607800280DD14748C3
:1027E00065700088C00708D10120FFF7FFF98B2131
:1027F0008900884201D90220607070BD10B504F0D4
:10280000B9F800F05DF839490120087010BD10B525
:1028100001208007008A000601D500F051F810BDA4
:1028200010B50120FFF7F3FE04F0AAF810BD10B5B3
:102830000124A407208A000718D50220FFF7E7FE2D
:1028400004F0A4F8206840004008610008432060BC
:102850002068C00FFCD11F48803001680906090EAE
:1028600001D00121016021490420087010BD70B51C
:102870002348008885062348AD0E44681748006F3A
:102880000078002802D1284604F086F81E48008906
:10289000164EC00507D520060BD5E00709D02846FF
:1028A00004F080F803E0200603D5E00701D0032000
:1028B0003070200403D5E00501D50220307070BDD2
:1028C00010B50A490120887004F072F810BD0000AC
:1028D00071020000400000406C030800E00100208D
:1028E0004A0008003803080020000050BE85002080
:1028F0000016005000E200E00033005000150050C8
:102900000020005000020040002C0050FEB55B4C3F
:102910000026606D37460090FEF74BF8584D0028B2
:1029200002D12879022801D100200090FEF73FF95A
:1029300000280ED104F042F800280AD050480126A1
:10294000C078002805D005252D07A88AC00701D02A
:10295000042690E003F02EFE00287DD149488069CE
:10296000002801D0606D00904548009C8178684641
:1029700004F02AF800287ED041488178684603F0A8
:1029800013FE002877D00020FF2100942D31012470
:102990000190A407206A8842FCD3394881786846B0
:1029A00004F012F8002866D035488178684603F0B4
:1029B000FBFD00285FD00098002804D00199002971
:1029C00001D0401E0090304900220978832002295E
:1029D00000D1B5202D490B78012B00D121300A7090
:1029E000E26B0F21920A92020A43E263E16B284AEA
:1029F000800211400143E163E06B3721C002C00A4D
:102A000089050843E06300980426002801D0001DD2
:102A10000090C002642103F0C3FE002800D0401ED5
:102A200017490979002900D0012103F0D3FF194883
:102A3000C06A8047FEF7E9F8002808D028883021CE
:102A40000843288028880321084328800127206B19
:102A50000004C00FFBD000E00DE00F480168C9057D
:102A6000FCD5002F01D0FEF720FF03F0B9FF288925
:102A70008021884328813046FEBD0000600200208E
:102A8000C6060800A805080054020800BF850020FB
:102A9000FF03E0FF1C07080000020040FFB500260E
:102AA00085B0154641486A463446374610820029AB
:102AB00004D0042203A803F065FD02E00020C04317
:102AC0000390002016E003990141C90710D00F9927
:102AD000020151180A79022A02D0102A05D102E017
:102AE000761CF6B201E0641CE4B20989C9198FB200
:102AF000401CC0B2A842E6D300940023324601979E
:102B00000E99059803F072FF00242AE003992141F1
:102B1000C90724D00F9927017E18F18802A80091D7
:102B200001900F983279C35905983189008803F0D4
:102B300063FF002813D17189002910D03079022851
:102B400007D10F980222C05904A903F015FD0028EF
:102B50000DD0684671890089F26803F053FF641C48
:102B6000E4B2AC4201D20028D0D009B0F0BDF06888
:102B70004078FF2809D00899002906D005996A46AF
:102B800009781289511A089A11546A461089411C11
:102B900011807189F26803F035FF0028DFD16B46A0
:102BA00002220121188903F033FFD8E7032800002F
:102BB0000A7902704A7942700B8883701B0AC370CD
:102BC0008A79027149884171090A81717047F8B5A3
:102BD00014460F461E4605464288018806232046B5
:102BE00003F020FE0446287903F018FF20802771A7
:102BF0006680204603F028FEF8BD70B51446428872
:102C000000790D460102042324480C3103F00AFE2A
:102C1000002D01D0132100E012210170448003F047
:102C200013FE70BD10B502F007FF00F039F800F098
:102C300021FA00F077FC10BD70B5064615460C462B
:102C4000372003F02FFD022805D1E2B237232946B1
:102C5000304603F0E9FE202003F024FD022805D1D0
:102C6000E2B220232946304603F0DEFE1C2003F0AA
:102C700019FD022805D1E2B21C232946304603F093
:102C8000D3FE362003F00EFD022805D1E2B2362332
:102C90002946304603F0C8FE70BD00000D3000002C
:102CA00010B50E212B4803F0C5FE2B49202003F060
:102CB000C7FE0021202003F019FD10BD70B5254D81
:102CC0000646298804232022244803F0ABFD04464D
:102CD000287903F0A3FE2080A670204603F0B4FDFF
:102CE00070BD7CB504461B4E1C4831880823202249
:102CF000C01E03F097FD0480054600241FE0301934
:102D0000817A890708D56200012152195180817AA0
:102D1000FD221140817203E00020610049194880C2
:102D200060008019C0886A46801C80B201A903F047
:102D30008DFE009829190078641C8871E4B2307BFC
:102D4000A042DCD8284603F07FFD0121202003F0BB
:102D5000CDFC7CBDC6850020607000200680000090
:102D6000FFB587B00F46072069460872BD4C20208A
:102D7000608038780025022856D82073002646E067
:102D8000B8194078A11905918872012805D16946C2
:102D9000087A0821084369460872207B012805D972
:102DA0006946087A1021084369460872099800901C
:102DB0007000AD490019019103900023052202A97A
:102DC000801D03F049FE05001CD103980021C08836
:102DD00003F048FE05460598807A012812D112209A
:102DE00069460874039804ABC0880122401C80B275
:102DF000002103F00DFE03989C49C088801C80B21E
:102E000003F036FE07206946761C0872F6B2387861
:102E1000B04202D9002DB3D007E0002D05D1012129
:102E2000202003F063FC00E081250123202290484C
:102E30000A9903F0F7FC057003F006FD00200BB0C3
:102E4000F0BDF0B585B00D4600206946854E08817D
:102E50003380288803F012FE3071FF2801D000244F
:102E600052E0834B89215B1C9A1C7E48FFF7AFFE22
:102E700052E061007B482A190E1803920491F088F1
:102E80000327801C80B201210A3203F0BBFD754884
:102E90000019817A012920D1E9780427012915D167
:102EA00004996B4649198A881A81898801290DD1AC
:102EB000032181720398017A807A814206D0F088DA
:102EC0000021801C82B26748FFF797FEF08802AAB3
:102ED000C01C80B2022103F095FD6248007B0128EE
:102EE0000CD9E000411968460C31FFF761FEF0880B
:102EF0006A46C01980B2072103F084FDA978F088E2
:102F000003F0B0FD641CE4B25648017BA142B0D886
:102F10000221202003F0EAFB002005B0F0BD70B5CF
:102F2000504D0C46287903F079FD2188884221D143
:102F3000A078297B88421DD2E17864291AD8400004
:102F40004019C088E21C801C80B2012103F05AFDA8
:102F5000A07829460A31415C890709D5400040190B
:102F6000C0880021801C82B22846FFF746FE04E09C
:102F70008A2000E08120FFF7A1FE002070BDF8B597
:102F80000F463849802500200A7B09E0440061187B
:102F9000C9883B88C91C8B4200D10025401CC0B2A7
:102FA0003049824201D9802DF0D0401EC6B2002D9A
:102FB0000FD1787A397A00020843694608800AD02E
:102FC000012808D080252748398800792A4603F04F
:102FD0005BFD0020F8BD234C70000019C0880A4634
:102FE000C01C80B2022103F00DFD68460088012854
:102FF0001FD0A019817AFD2211408172F879002832
:10300000E1D018480623018819482022801D03F0CA
:1030100009FC04461348007903F000FD208069464E
:103020000988A170090AE1702671204603F00CFCA2
:10303000C9E7A019817A02221143DEE710B50878AA
:10304000122802D14878FFF739FE002010BD10B5D4
:10305000044A180A1279904202D10888FFF741FE0B
:10306000002010BDC68500201C7000200102000059
:103070000180000010B50821104803F0DBFC104966
:10308000362003F0DDFC0021362003F02FFB10BDBD
:1030900070B50A4D0446E888002103F0E3FC298856
:1030A00004233622074803F0BDFB048003F0CCFB69
:1030B0000121362003F01AFB70BD0000D6850020E8
:1030C0002471002001D80000FFB58BB00521C90292
:1030D00068468182C91C0182FA490183FA4C362173
:1030E000618006219925009108220023019536214F
:1030F000A01D03F07BFC05007ED1A01D01250095DD
:1031000001900222E08805AB114603F075FCE088CF
:10311000EE4A022103F076FC03AE01960095E088AA
:1031200004AB0222132103F067FC02AF09200197D0
:103130000090E088E64B1022042103F05DFCE54995
:103140006846007A48706846407A88700A46684641
:103150001321808903F056FC01960095E08804ABAA
:103160000222132103F048FC092001970090E08817
:10317000D94B1022042103F03FFCD8496846007A5D
:1031800048706846407A88700A46684613218089EC
:1031900003F038FC01960095E08804AB022213216D
:1031A00003F02AFC01970095E088CD4B1022042102
:1031B00003F022FCCB496846007A48706846407AA2
:1031C00088700A4668461321808903F01BFC01962B
:1031D0000095E08804AB0222132103F00DFC0920C6
:1031E00001970090E088C04B1022022103F004FCFC
:1031F0006846BE49007A00E058E048706846407A68
:1032000088700A4668461321808903F0FBFB01960B
:103210000095E08804AB0222132103F0EDFB0920A6
:1032200001970090E088B24B1022142103F0E4FBD8
:10323000B0496846007A48706846407A88700A4605
:1032400068461321808903F0DDFBAB4D01960095A4
:10325000E08804AB0222132103F0CEFB0197009516
:10326000E088A64B1022012103F0C6FBA449684662
:10327000007A48706846407A88700A46684613218A
:10328000808903F0BFFB09A9092001910090022267
:10329000E08806AB114603F0AFFB0546E08800214D
:1032A00003F0E0FB0121362003F020FA012336224F
:1032B00094480E9903F0B6FA057003F0C5FA0020A1
:1032C0000FB0F0BD3EB5804C0D46E08802AA0C3030
:1032D00080B2694603F0BAFBE08801AA0D3080B2E3
:1032E000694603F0B3FBE088AA1C0C3080B20121D0
:1032F00003F088FB01980088002806D0E0880021B0
:103300000C3082B22046FFF778FC00203EBD10B59D
:103310006D480A46C0880421801D80B203F072FB0C
:10332000002010BD38B50D4600206946664C088067
:103330002380288803F0A2FB2071FF2817D0E088A3
:103340006A460D3080B2022103F05CFBE0886A46D9
:103350000C3080B2012103F055FBA978E08803F01E
:1033600081FB0221362003F0C1F9002038BD654AF7
:103370001B23DB02521C89215348FFF728FCF4E78A
:10338000F8B5514D0C4629798022180A88427DD122
:10339000E988208826468B1C0027083698420ED1E3
:1033A000012100916188324603F02CFBE07900286E
:1033B00075D05448082336222988C01F10E00B1D01
:1033C000984229D1022100916188324603F01AFB0C
:1033D000E079002863D04B48298808233622801FD3
:1033E00003F020FA0646287903F018FB3080776056
:1033F000E07A01067160A07A000401437160607A8E
:10340000000201437160207A014371600098B0703E
:10341000304603F019FA42E00B460A3398421BD1BA
:1034200004200090E079002839D0364829881823F4
:103430003622001F03F0F6F90746287903F0EEFA6A
:10344000388062883146381D03F09CF8A078F87007
:103450000098B8703846DCE70B460833984220D114
:10346000032100916188324603F0CCFAE07900280C
:1034700015D02448298806233622401F03F0D2F9AC
:103480000646287903F0CAFA308000E018E0B780D9
:10349000607A0102B180207A0143B180B6E7002250
:1034A00007E00D31884204D16188324603F0AAFA60
:1034B000F5E7A079012803D12188287903F0E4FAFF
:1034C0000020F8BD02290000D6850020C070002031
:1034D000C270002074780020D2700020877800200D
:1034E000E27000209A780020F2700020AD78002071
:1034F00002710020C078002001020000127100203B
:10350000D378002009D8000010B5054A180A1279AE
:10351000904202D10888FFF7BBFD002010BD0000DB
:10352000D685002010B51221244803F083FA2449DF
:103530001C2003F085FA00211C2003F0D7F810BDF1
:1035400030B503460120002103241A46CA40D207A1
:1035500004D04D0022466D1CAA401043491CC9B23C
:103560000929F2D330BD02460020122901D98D204D
:103570007047062A06D0072A07D0082AF8D107295B
:10358000F5D170470829F2D170470629EFD370476B
:1035900070B50A4C0546218802231C22094803F015
:1035A00041F9058003F050F9E088002103F05AFA50
:1035B00001211C2003F09AF870BD0000E085002076
:1035C0009872002004700000FEB53B4E1C207080F5
:1035D0001D46174634460888FFF7B2FF0290374869
:1035E000334601900833132202A90097A01D03F06F
:1035F00033FA040008D1F088002103F033FA0446BE
:1036000001211C2003F072F801231C2229462C48BA
:1036100003F008F9047003F017F90020FEBD70B53F
:103620000C4625490B802078082814D8CA88083110
:10363000415C51188DB2822D0BD06178FFF793FF5A
:10364000010009D16D1C6178A8B2A21C03F0DAF95F
:1036500008E0822100E08121194B17485B1CDA1C2D
:10366000FFF7B5FA002070BD70B51D460C460888FE
:1036700003F004FA104AFF281071158009D0A178D0
:10368000D08803F0EFF902211C2003F02FF800206E
:1036900070BD0B4B89219B1C9A1C0748FFF797FABA
:1036A000F5E710B5044A180A1279904202D1088849
:1036B000FFF76EFF002010BDE08500208471002020
:1036C0000170000010B500F0BFF916490020087025
:1036D00001F037FE10BD10B500F053FC01F090F979
:1036E00000F052FD00F0FCF90020FDF74BF910BD91
:1036F0000C2250430C4A10B580188078FF2803D064
:10370000088800F023F810BDFFF7DCFF10BDD9E7F3
:1037100010B500F0C2F9002801D0FFF7D3FF10BDAB
:103720007047CFE74D9000200C8600200021FD4A15
:1037300005E0834201D101207047491CC9B20C2326
:103740004B43D35CFF2BF4D100207047F8B50546FE
:103750000024F44E0AE080198168002904D0641C1A
:10376000E4B22846884701E0641CE4B220460C21FC
:103770004843315CFF29EED1EA4E0024183609E0B7
:103780008F19B968002903D0FFF7D0FF002808D0AF
:10379000641CE4B221460C204143705CFF28EFD149
:1037A000F8BD641CB968E4B228468847F2E770B5F2
:1037B000DC4ADD4C154618350DE0891849680029AA
:1037C00007D0C1B20C23594389184968401C607066
:1037D00025E0401C607060780C214143535CFF2B56
:1037E000EBD10AE049194968002903D0FFF79EFF91
:1037F00000280DD02078401C207021780C204143F7
:10380000685CFF28EED1002060702070012070BD40
:1038100020780C21414349194968401C2070884791
:10382000002070BDFFB581B005461E4614461846FF
:103830000A9F03F0ABF900902E7029463846009A93
:1038400003F028F90246C820B8490823B84E002AD8
:1038500002D008807380FEE72A78A24202D908804D
:103860007380FEE7A24200D322462A700099029894
:1038700002F088FE009803F05FF905B0F0BDF0B5E6
:10388000A94899B0C06800285DD1502332220D218B
:10389000A84802F0C7FF0446A34E0025F0600E20A2
:1038A00020706570FF20A5809130A081E081072005
:1038B000207401206074A57421460B2014310090FF
:1038C0001791481E20231C220390FFF7ABFF2146CF
:1038D0000C2031310090481E20231F2218910590A2
:1038E000FFF7A0FFF0681A22C17C2030511ACEB237
:1038F000007C1D21081AC7B268460574304638435B
:1039000021D03E206946087406AA04A9022003F0CB
:10391000C1F80028684601D0057414E0017C002934
:1039200011D08E4205D3E27C179806AB121803988B
:1039300007E08F4207D32034227C189806AB121878
:10394000059800F0DCF87848C06819B0F0BD70B593
:10395000754D84002D1D2959002910D101020A231B
:10396000322275480E3102F05DFF0A2101702851A4
:10397000818041800021C1807D21C90001812859B9
:1039800070BD70B5684DA868002821D16948222310
:1039900032220D210A3802F045FF0321017004464E
:1039A000A8600A205F49607010222339A01C02F031
:1039B000E9FD0021618221756175A020E082082067
:1039C000208310206083A1836420E0832034217051
:1039D000A86870BD1CB554480C21183003F02AF8B3
:1039E00001246846047004716A4601A9352003F079
:1039F00051F8002801D0684604704B490020183166
:103A00000C2242435218401C00061471000EF7D0DD
:103A100044493220483103F013F80021322002F0EB
:103A200065FE1CBD70B50D460102434814462C23AB
:103A300032220C380E3102F0F5FE014620310D72B3
:103A40004C7202F001FF70BD10B5FFF718FF02F0D5
:103A5000FBFE35490020C8600221322002F046FEFC
:103A600010BD10B50446FFF772FF02F0EDFE2E4ABE
:103A70000020A100121D50500421322002F036FE19
:103A800010BD2E4B10B59A4201D91A4602E0002A09
:103A900000D1012202F032FF10BD10B50121322009
:103AA00002F024FEFFF783FE10BD80E610B5FFF79D
:103AB00068FF02F0C9FE1C490020886010BD1A4A48
:103AC000002124324B00D35C834203D1480080188C
:103AD00040787047491CC9B20A29F3D301207047C6
:103AE000114910B50020FF232431012442008B54DA
:103AF0005218401CC0B254700A28F7D310BD70B5DC
:103B00000646481C1070092015460C465070224687
:103B10001946A81C02F036FD3078A41C001930703C
:103B200070BD000024730020F48500200031005097
:103B3000003300500E3400000E38000030750000D5
:103B4000FEB51C46089B0726764D6F4668C7134690
:103B5000224600F00EF9FEBD10B5104602F0A2FD9F
:103B6000002804D0704802F09BFF002010BD012304
:103B700032220D216D4802F055FE0121017002F044
:103B800063FEF2E7FFB50C46664D09782D1F81B044
:103B90001E4617460F2917D009DC6348012916D0A5
:103BA00002292DD0032918D00E2906D11EE0102994
:103BB0000AD0112908D012291CD02868002803D067
:103BC00021462C680198A047002005B0F0BD61781F
:103BD000002905D1FFF76AFFF6E76178002902D0D6
:103BE00002F05EFFF0E7FFF793FDEDE76078FFF787
:103BF00097FDE9E760784428E6D102F002F9E3E7AF
:103C00006178002901D002F04BFF28680028DBD042
:103C100033463A46D4E7F8B51C4610460E4602F045
:103C200041FD022804D0404802F03AFF0020F8BDD0
:103C3000250A0C202F4647433D483C18A570FF2D10
:103C400015D00121E1700521322002F04FFD3848E6
:103C50003188C153707A60713146A01D06220A3145
:103C600002F090FC002211462846FFF7DBFE3146A9
:103C7000284602F06BF8D9E7FFB5087881B01F46F7
:103C800016460C460A2812D06078002802D0264832
:103C900002F006FF234D2D1F2868002805D021467D
:103CA0002C683B4632460198A04700208DE710461D
:103CB00002F0F8FC0428F8D160780028F5D105213D
:103CC000304602F013FDF0E710B510460C4602F046
:103CD000E9FC032808D0052806D0042804D012489F
:103CE00002F0DEFE002010BD204602F080F8F9E769
:103CF00010B510460C4602F0D5FC01460A480129D1
:103D000002D12178002903D002F0CAFE002010BDA4
:103D1000FFF7CBFE0028F9D0FFF703FDF6E7002000
:103D2000704700008073002011111111023400004F
:103D30000C860020FFB583B01E4F002401AEA0000A
:103D400000963D5803A80FC8A84700280ED0641C51
:103D5000062CF4D3174C241F2068002803D003AD91
:103D60000FCD2468A047002007B0F0BD6846007959
:103D7000FAE7F8B5089C9C46079D0346002C16D030
:103D8000641E14D40C4FE600AE5B9E4201D0BE42CE
:103D90000BD1E3005B195C68002C08D01346624627
:103DA000A047069908700020F8BD641EEBD50120DD
:103DB000F8BD0000CC730020FFFF000010B5052007
:103DC00000070089000608D501208007006B000469
:103DD00003D402F0EFFBC00701D0002010BD01208A
:103DE00010BD000070B50F49049C4118052901D38E
:103DF000012070BD00F00DF80025002806DB0A4AFE
:103E000081005058002801D055508047257000206F
:103E100070BD04494018052801D240B27047002007
:103E2000C0437047F137FFFF348600207047000021
:103E300070B5464A00248318049D002B1DD0444AC7
:103E4000012B06D04149891E41180A291ED30120A1
:103E500070BD0978481E092808D88900091F5158E3
:103E60003C4B994221D1800014501EE03A49C820B1
:103E700008803A4908204880FEE74A88087838498F
:103E8000401880B2322102F039FD0EE02F49491E60
:103E90004018C0B2411E092907D880008118803916
:103EA000C86F002801D0CC6780472C70002070BDFF
:103EB000F8B50446401E092819D82548A1000D1858
:103EC000803DE86F002812D0224EB0420FD0244F20
:103ED0003221E01980B202F0FDFB322201231146AB
:103EE0003846EE6702F09EFC047002F0ADFCF8BDAF
:103EF00070B50546164A00208300D358002B04D025
:103F0000401C0A28F8DB002070BD8300401C04061A
:103F1000D150240EF7D0FFF751FF002807D01048EA
:103F20002A46201880B2322102F0E8FC0CE0FCF7AF
:103F300043FD0B48322204231146401E02F072FC5E
:103F40004580047002F080FC204670BDFD37FFFF05
:103F5000488600202D3E00200031005000330050E4
:103F600004C8000010B5202103233222880202F089
:103F700059FC0121017041700021817002F064FC44
:103F800010BD10B50120FDF7D7FD4A49087010BDDE
:103F900010B5484CE17022716371207010BD70B58E
:103FA00006461C2332222021434802F03BFC414DAF
:103FB00004462E8106802020FFF781FDA07001229B
:103FC000E2700021A1802B782372A372E1806172DC
:103FD000E1723A4BA381E181042323746174A274DA
:103FE000204602F031FC0122032311460020FFF796
:103FF000CFFF70BD70B52F4C01256570E0780028AB
:1040000003D061792079FDF772FCA570C8223221B6
:104010002B48FFF736FD70BD10B504462648042333
:1040200032222021C01C02F0FDFB224909890180B7
:1040300000218170C47002F007FC10BDF8B50326A2
:104040000124360200233246062102200094FDF7A7
:1040500058FC00233246072118460094FDF751FC16
:104060000120FDF769FD134D04462878844202D0F3
:104070002046FFF7D1FF2C70E878002803D0052CEC
:1040800001D2FFF7B7FF0024234632460621022063
:104090000094FDF736FC00233246072118460094B1
:1040A000FDF72FFCF8BD064810B53221401E02F086
:1040B00011FB10BD7086002002800000AD270000BB
:1040C00002C80000FEB51C46089B0626274D6F4619
:1040D00068C713462246FFF74CFEFEBD10B53222DC
:1040E0000C4601231146900202F09CFB21780170DE
:1040F00002F0AAFB002010BD0020704710B5FFF7AA
:10410000D2FF002010BD10B5FFF798FF002010BDB2
:1041100010B51446FFF792FF15482146028815484E
:10412000FFF7AFFC002010BD70B5134815460078AE
:10413000002818D0114C124912480E4E2278761CD5
:1041400009780078002A05D0FDF7C7FB0020207011
:10415000142204E0FDF7CBFB012020700522294644
:104160003046FFF78EFC002070BD0000E473002095
:104170007686002001C80000738600207286002029
:104180007586002074860020F74800210174416183
:104190008161C160F54A0177116514210170704792
:1041A000F148002101744161C160704710B50123DD
:1041B00032223621EE4802F035FB0021017002F078
:1041C00043FB10BD70B5054636211023322288020C
:1041D00002F028FB0446E448001F058025803620B5
:1041E000FFF76DFCA070002161602046A16002F025
:1041F0002BFB70BD10B50446DE4804230288DC4862
:104200003621401E02F00EFBD749091F09880180A4
:10421000847002F019FB10BD10B5D34C2078032830
:1042200001D1FDF787FE14202070002001F0F5FD7C
:1042300010BDFEB5064600200124640400900190E4
:10424000034602460146029065123046FDF71CFE09
:10425000FDF7CFFFC84980B2401806D02D210902D2
:10426000401A02D0012800D1840429462046FDF7D7
:10427000D7FEFEBDF8B50446BB480326017A3602D8
:104280000906090FA171017A08230907090FE171D5
:10429000018909040D0F257001890905090F617055
:1042A00082681202120FA27082681203120FE2706B
:1042B0008268120F2271806832460001000F60711F
:1042C000012000902846FDF71CFB00250095E179B0
:1042D000A07907233246FDF714FB0095E178A0781A
:1042E00006233246FDF70DFB009561792079052301
:1042F0000022FDF706FBF8BD3EB5AA216A469A4C9E
:1043000011722178062013290FD11046FFF7B2FF52
:104310006846FFF78EFF6168012202A8891CFDF73D
:1043200082FF40B2012800D10220C0B23EBD10B5CC
:10433000012001F072FD8C4C2078C00601D40120D0
:1043400000E01020FFF756FF002020746061A0619C
:10435000E060207710BDF8B50F460021060E824CB4
:1043600035463960142E17D2257080B26060002D5A
:1043700001D0012D07D18149280608436160002141
:1043800002F094FB38602078122801D0132803D162
:10439000606802280BD86074112E26D00EDC022E25
:1043A00020D006DC002E1DD0012E13D11AE01120E2
:1043B00022E0032E16D0102E0CD116E0FD2E2CD0AC
:1043C00004DC122E0ED0132E04D10BE0FE2E16D0DC
:1043D000FF2E0CD00820FFF70DFF142020700020C6
:1043E0003860F8BDFFF7A3FFF8BD082004E0FFF731
:1043F00013FFFFF7D5FE0320FFF7FCFEF8BD207F7B
:10440000002801D0042001E0FFF776FFFFF7F2FE5D
:10441000FFF702FFFFF7C4FEF8BD594802F040FB6A
:10442000F8BD10B50446534804230288504836218D
:10443000801E02F0F7F9046002F006FA10BDFEB526
:10444000494D0224287800280AD0012808D00228E3
:1044500001D003282ED008242046FFF7CBFEFEBD56
:10446000464E00063043002102F020FB0746800440
:10447000020C297CFF208B18013083422AD8801A35
:104480003A4A401A121F891880B25432101805E0B7
:104490000A6804C02A7C121F2A74091F2A7C002A79
:1044A000F6D1287800210006304302F0FFFAB84226
:1044B00010D02EE00320696800060843A96802F0C6
:1044C000F5FA06468004070C287CC119FF2001304C
:1044D000814201D90724BFE76846FFF7CBFE684653
:1044E000FFF7A7FE68682A7CC1192048FDF79BFEEC
:1044F00007462878696800060843A96802F0D6FADA
:10450000297CB94201D1B04203D10624FFF789FFCB
:10451000A2E7FFF786FFFFF77FFEFFF741FE9BE76D
:1045200070B502460020160BC04336030C0B09057C
:1045300000D0641C002C01D000250BE001240025D4
:1045400020213046FDF741FE01210903761800289D
:1045500002D16D1CA542F3D370BD0021FF2811D0FC
:10456000401CC0B2704700008086002050900020A0
:1045700008D80000D6850020F03DFFFF9C91002068
:10458000111111110846EDE7FF2802D0FF2905D0CF
:1045900006E0FF2908D0002906D001E0002801D05C
:1045A000884201D90220DDE70120DBE710B5AF4CDE
:1045B000034600202478C043132C02D11846FDF78F
:1045C000ACFD10BDF7B598B000271A980C463E46D2
:1045D000402805D32078702802D16078512802D075
:1045E00012201BB0F0BD6568A04928464030086223
:1045F0001F210C2209036846FFF7D8FF0C2847D17A
:1046000068460078702803D168464078522801D067
:104610001420E6E70198119002981290002D03D023
:104620001199401AA84201D21320DAE768464022C5
:104630001090FFF7BBFF40282AD16846C07814903D
:104640006846817803A8169020460C301590AA2958
:1046500007D168460078702803D168464078512811
:1046600003D00127002014900BE010221699159812
:1046700001F082FF002804D1E0690799884200D147
:104680000227402212991098FFF790FF402801D08E
:104690001620A6E76846C078139068468078AA2856
:1046A00007D168460078702803D1684640785128C1
:1046B00003D00126002013900BE0102216991598C4
:1046C00001F05AFF002804D1E0690799884200D11F
:1046D00002261898002801D0022807D9012F11D0EE
:1046E000012E1CD013991498FFF74EFF1590FF224E
:1046F0004021684602F0E0F91598022815D0022FF3
:1047000024D004E0FF224021684602F0D5F9574941
:1047100011984860002E1BD0022E19D00EE0FF2207
:104720004021684602F0C8F901E0022E0ED04F4940
:1047300012984860002F07D0022F05D001264B4F5A
:104740003878132809D03CE0149802E0152048E797
:104750001398FFF702FF0646F1E74035A9B27868E3
:10476000FFF7DEFE00282CD16846C6706068019015
:10477000A068029020460C300EC8A069069003A8DD
:104780000EC0E06907902178684601706178417039
:104790002020015D08A801703878132811D11A9AD9
:1047A0007968403A2046154640304031FDF73BFDE0
:1047B000A84206D1402279681098FDF734FD4028C0
:1047C00001D006200DE700200BE77CB5274C022620
:1047D0000020274A616904E0237F155C6B40237742
:1047E000401C8142F8D82078122801D0132801D02B
:1047F000082636E06846FFF73DFD6846FFF719FDDD
:104800006269002A02D0A069002817D0A169206A35
:104810008A18431C9A421ED8824201D9401A60610C
:1048200060682546411812486269FDF7FCFC696919
:10483000814210D1A8694018A8610DE0607C0C4944
:10484000FFF7C0FE002801D086B205E06269A169C9
:104850008918A16100E0062600206061A069FFF7C9
:10486000E0FDF0B2FFF7C6FC7CBD000080860020B2
:10487000A0900020FEB51C46089B05265C4D6F46A7
:1048800068C713462246FFF774FAFEBD10B51046FE
:104890000C4601F007FF012809D1322201231146FD
:1048A000900201F0BFFF2178017001F0CDFF0020E0
:1048B00010BD70B54F4C0D462078142847D2A9780A
:1048C000002942D0E168002938D0C0061DD4207CE0
:1048D000EA788118502933D847494018291D01F03A
:1048E00051FE207CE9784018C0B22074E168814212
:1048F00001D1FFF7A4FD207CE168884202D90520A0
:10490000FFF778FC2078C0061FD5EA786069FF239E
:1049100081180133994215D838494018291D01F0F2
:1049200031FEE978606940186061E168814201D137
:10493000FFF74BFFE1686069884206D9052002E075
:104940000720DDE70720FFF755FC002070BD082099
:10495000F9E708B58878002806D048686946FFF767
:10496000FAFC0098FFF75DFD002008BD10B58878BF
:1049700000280ED01F4A49689160107802280AD09A
:10498000032808D0122804D0132802D00820FFF7EB
:1049900031FC002010BD52680006104302F086F87A
:1049A000FFF73FFDF5E770B588780D4600281DD06C
:1049B000A888002805D00F4C2178CA0603D48207A6
:1049C00001D005200EE0142910D2C90605D45028C4
:1049D00007D8FFF7E5FBA88807E0FF2101318842EF
:1049E00003D90720FFF706FC00E0E060002070BD5F
:1049F000147400208086002050900020A090002099
:104A0000704710B51C2102233222880201F00AFFF0
:104A1000FF217431018001F017FF10BD70B505460C
:104A2000042332221C21074801F0FCFE04460580C5
:104A30001C20FFF744F8A0700020E070204601F031
:104A400003FF70BD03700000FEB51C46089B0226E4
:104A50004C4D6F4668C713462246FFF78AF9FEBDE4
:104A6000FEB510460E4601F01DFE01287ED13078BD
:104A7000002877D1062332221C21434801F0D2FEC0
:104A80000446002020700320607002463FA1A01C55
:104A900001F078FD204601F0D7FE0B2332221C21C5
:104AA000394801F0BFFE04460120207008256570DA
:104AB0002A4637A1A01C01F065FD204601F0C4FE86
:104AC0000B2332221C21304801F0ACFE04460620A4
:104AD00020706570082230A1A01C01F053FD204613
:104AE00001F0B2FE082332221C21274801F09AFE71
:104AF00005270770044647703A462AA1801C01F03A
:104B000041FD204601F0A0FE082332221C211E4850
:104B100001F088FE04460420207067703A4621A107
:104B2000A01C01F02FFD204601F08EFE0A23322248
:104B30001C21154801F076FE0446057007206070C0
:104B40000120A070D221684601800B21C90141805B
:104B50006901818006226946E01C01F013FD2046B0
:104B600001F072FE01233222114600E006E09002BD
:104B700001F058FE3178017001F066FE0020FEBDA4
:104B8000002070473C740020027000004C53540019
:104B90004342503331300000123456FFFE9ABCDEDF
:104BA00000000000302E302E32000000F0B5FF492A
:104BB0008FB0C8200880FE490820488000F04EFDD4
:104BC000054600F0A7FDFB4C0B90266B284666635C
:104BD00001F0A8FB2063616C21640991314601F06A
:104BE000F4F901F0C3FB0690F3480F46006801F0AA
:104BF000BDFBF24D06462A46F14B039101F068FADF
:104C000002460B462846EE4901F014FB0191054689
:104C10003B46069A01F056FF08900791099801F06B
:104C2000A5FB07460B4604913A462846019901F038
:104C300049FF079B089A01F04BFA01F0BFFB606443
:104C4000A06BE06307903046DE4ADF4B039901F02A
:104C50003FFA02460B463046039901F0EBFA06464E
:104C60003A460391049B01F02DFF089005910798A7
:104C700001F07CFB0F460A9030460022D34B03998B
:104C800001F0D0FA079106903B460A9A01F01AFF0C
:104C9000059B089A01F01CFA01F090FBA0630D90AF
:104CA0006769A7610B9801F03DFB6061616AA162D1
:104CB0000B91394601F089F901F058FB02460B4689
:104CC0002846019901F0FEFE0A9009910B9801F027
:104CD0004DFB07460B4605913A462846019901F0DF
:104CE000F1FE099B0A9A01F0F3F901F067FB60629B
:104CF000E069206208903A463046059B039901F02E
:104D0000E1FE05460E46089801F030FB079B069A27
:104D100001F0D8FE2A46334601F0DAF901F04EFBE5
:104D20000546E0610D9801F008FB0290284600F06E
:104D30003FFD01F002FB0190E2782346D000851A86
:104D400069464833897AE818C1706946497A8170A2
:104D50006946097A4170694689798171694649795C
:104D6000417169460979017120795855401C2071BB
:104D7000521CD0B2E070142803D300F0CDFF002005
:104D8000E0700FB0F0BD1CB58A48807CFFF790F84A
:104D900000F0FEFC0121002000F0E0FC8349C82067
:104DA0000880834908204880102000F0A2FC0820D9
:104DB00000F09FFC012400231A46022120460094A3
:104DC000FCF79FFD00200123019013220221009493
:104DD0001846FCF7B6FD7E491320FCF732FE1CBDD9
:104DE000FEB5FBF7A7FD734FB87CFFF761F8022112
:104DF0000846FCF772FD02210846FCF778FDFFF734
:104E00001DF97448012600780322704000900023A9
:104E1000120208210220FCF774FD6F4D002428784F
:104E2000642807D9002303221202012118460094A6
:104E3000FCF767FD28785A2807D9002303221202BD
:104E4000022118460094FCF75CFD2878502807D909
:104E5000002303221202032118460094FCF751FD9F
:104E600028783C2807D9002303221202042118467F
:104E70000094FCF746FD2878282807D90023032250
:104E80001202052118460094FCF73BFD0325002380
:104E90002D022A46062118460094FCF732FD112007
:104EA00000F027FC00F00DFC4A480078002810D0E4
:104EB00000232A46194601200096FCF722FD0C210A
:104EC000002000F04BFC45493220FFF711F87882B2
:104ED00018E0102000F00DFC082000F00AFC002370
:104EE0001A46022101200096FCF70BFD0123132234
:104EF0000221184600960194FCF723FD384913203F
:104F0000FCF79FFD37493E700E204880FEBDF8B586
:104F1000284CA07CFEF7CCFF03210120FCF704FD08
:104F200003273F0200262F4D002877D0FBF702FD14
:104F300029480078642806D900233A4601211846FA
:104F40000096FCF7DEFC244800785A2806D9002396
:104F50003A46022118460096FCF7D3FC1E4800781A
:104F6000502806D900233A46032118460096FCF73C
:104F7000C8FC194800783C2806D900233A46042189
:104F800018460096FCF7BDFC13480078282806D97F
:104F900000233A46052118460096FCF7B2FC002390
:104FA000032212020621184600961DE0003100502F
:104FB000003300500080002058760020894160E5D1
:104FC000D022AB3FA167B3EA73B5753F0000F03F55
:104FD000AD4B00204D90002070860020874D0020B2
:104FE000B7530020E6780020FCF78BFC01276770A0
:104FF000E06A002813DCA7700023032212020721B5
:1050000018460097FCF77DFCA0780322009000234F
:10501000120206210220FCF774FC03E032E0401E7D
:10502000E062A6702878002801D02E7000E02F7072
:10503000F8480078642805D9287800230322120252
:1050400000904CE05A2805D9287800230322120248
:1050500000904CE0502805D9287800230322120242
:1050600000904FE03C2805D9287800230322120243
:1050700000904FE028286AD92878002303221202E2
:1050800000904FE0A07800284ED0FEF7D7FF002315
:105090003A46062118460096FCF733FCA67000231A
:1050A0003A46062102200096FCF72BFCA07800234C
:1050B00000903A4607211846FCF723FC0520E062E1
:1050C0002878002801D02E7001E001202870D148F6
:1050D0000078642805D9287800233A4600900121F9
:1050E00006E05A2808D9287800233A460090022181
:1050F0000020FCF706FC2AE0502805D92878002378
:105100003A4600900321F3E73C2805D9287800238C
:105110003A4600900421EBE7282818D92878002384
:105120003A4600900521E3E76670E66200233A46BE
:10513000062102200096FCF7E4FBA07800230090F3
:105140003A4607211846FCF7DCFBFBF700FCB248A7
:105150000078002803D02078002819D020E000F043
:105160007DFAAE49884209D06089401C80B26081D6
:10517000042804D96078002807D000E06681A84997
:105180003220FEF7B5FE60820AE0FFF729FE07E055
:10519000A3493220FEF7ACFE60826888401E68801A
:1051A0006888002806D09F49C82008809E490820AA
:1051B0004880F8BD9D4801F073FCF8BDFEB5132092
:1051C000FCF72FFC012403220221002312020846CF
:1051D0000094FCF796FB0322002312020121022017
:1051E0000094FCF78EFB032200231202032102200D
:1051F0000094FCF786FB00250322072312022946B0
:1052000002200095FCF77DFB0623DA01092102202C
:105210000095FCF776FB052300220421022000956F
:10522000FCF76FFB824803214170022202700022CA
:1052300002910123019500941146FCF725FE0022FE
:105240000F23114610460095FCF75BFB784E0322B6
:105250000E3EB07800900023120206210220FCF7D7
:1052600050FB6D4F032238780023604000901202FB
:1052700008210220FCF745FB002303221202012132
:1052800018460094FCF73DFB002303221202022182
:1052900018460094FCF735FB002303221202032179
:1052A00018460094FCF72DFB002303221202042170
:1052B00018460094FCF725FB002303221202052167
:1052C00018460094FCF71DFB00230322120206215E
:1052D00018460094FCF715FB387800230322009051
:1052E000120219460120FCF70CFB032201210023C6
:1052F000120208460094FCF704FB0322002312026A
:10530000022101200095FCF7FCFA1320FCF789FB31
:10531000032200231202052102200095FCF7F1FA76
:10532000B078002303220090120207211846FCF7F0
:10533000E8FA00231A46032101200095FCF7E1FA60
:10534000FEBD38B53A4C0E3CA07CFEF7B1FDFFF730
:1053500035FF3449C820088033490820488000259B
:1053600003222B461202294601200095FCF7C9FAB8
:1053700002210846FCF7B1FA02210846FCF7B7FA09
:105380002548007800280AD1112000F0B2F900F079
:1053900098F9102000F0ADF9082000F0AAF9204992
:1053A0003220FEF7A5FD60822570FBF7D0FA214977
:1053B0000E20488038BDF0B517488DB00078002821
:1053C0007ED100F04BF90746012000230322009014
:1053D000120207211846FCF794FA154CFF210E3CE7
:1053E0002089F531002588420BD9032200231202BF
:1053F000052102200095FCF784FAA5716571FFF77D
:10540000A0FF0648874217D12089401C2081A58132
:1054100016E00000708600204D900020FFFF7F0006
:105420000F4F0020003100500033005011111111B6
:105430000E800020E67800202581A089401CA081F4
:10544000266B3846666300F06DFF2063616C216453
:105450000791314600F0B9FD00F088FF0746764815
:105460000491006800F082FF744E754B3246039140
:10547000029000F02DFE02460B463046704900F0C7
:10548000D9FE06463A460191049B01F01BFB0A90A7
:105490000B91079800F06AFF07460B4605913A46C4
:1054A0003046019901F00EFB0B9B0A9A00F010FEAA
:1054B00000F084FF6064A06BE0630890614A00E044
:1054C0009EE0614B0399029800F002FE02460B46F3
:1054D0000399029800F0AEFE3A4603910290059BB4
:1054E00001F0F0FA0A900B91089800F03FFF089045
:1054F00009910022554B0399029800F093FE07464C
:105500000791099B089A01F0DDFA0B9B0A9A00F0BB
:10551000DFFD00F053FFA0636169A1616061626A11
:10552000A2620C9200F051FD00F020FF02460B46F3
:105530003046019901F0C6FA0A900B910C9800F0E0
:1055400015FF02460B46059104903046019901F083
:10555000B9FA0B9B0A9A00F0BBFD00F02FFF6062C6
:10556000E0692062089002A80FC801F0ABFA064675
:105570000191089800F0FAFE02460B46384607995A
:1055800001F0A0FA3246019B00F0A2FD00F016FFE8
:10559000E06100F086F980B2FF212D31208288423F
:1055A0000CD90126032200231202052102200096B5
:1055B000FCF7A7F9A6712582A58110E06079322851
:1055C0000AD9032200231202052102200095FCF7CC
:1055D00098F9A571657105E0A079002802D060797D
:1055E000401C60711A49C82008801A490820488068
:1055F000002303221202072118460095FCF781F9C7
:105600000DB0F0BD10B505242407208A022188437F
:105610002082A08A0007FCD50F484188FF22013272
:1056200011434180FBF7F6FBFFF7C8FD608A20219C
:105630000843608210BD000058760020894160E573
:10564000D022AB3FA167B3EA73B5753F0000F03FCE
:1056500000310050003300502000005038B50221C6
:105660000846FCF73AF90020FCF777FC0020FCF72D
:1056700074FC0020FCF771FC0020FCF76EFC00209D
:10568000FCF76BFC0020FCF768FC0020FCF765FCD5
:10569000C4B269468C700020FCF75FFC6946487014
:1056A0000020FCF75AFC694608707F2C01D9FF20C6
:1056B00000E00020C87002210846FCF718F90098A5
:1056C00038BD70B5022101240846FCF706F94120D7
:1056D000FCF743FC0A20FCF740FC0D4D285DFCF76D
:1056E0003CFC641C0B2CF9DB02210846FCF7FFF89C
:1056F00070BD10B5044602210846FCF7EEF82046BE
:10570000FCF72BFC02210846FCF7F1F810BD000065
:10571000EA78002038B501210220FCF7DEF82E20BF
:10572000FCF71BFC0020FCF718FCC4B269468C7027
:105730000020FCF712FC694648700020FCF70DFCC5
:10574000694608707F2C01D9FF2000E00020C87056
:1057500001210220FCF7CBF8009838BD70B50C464B
:10576000054601210220FCF7B8F82846FCF7F5FBB6
:105770002002000EFCF7F1FB2004000EFCF7EDFB0D
:10578000E0B2FCF7EAFB01210220FCF7B0F870BDA3
:1057900070B5064D0024A00029582046FFF7DEFF13
:1057A000641CE4B2312CF6D370BD00004C740020B0
:1057B000F0B58BB0064614221C49684601F088F902
:1057C0001A491422143105A801F082F9184D042059
:1057D0002C46143C81004A19803AD26F6A500A194B
:1057E000803AD26F401E62500028F3DC2E603146B2
:1057F000009800F0F2FB01262060B50005A8615971
:10580000405900F0EAFB07460948415968464059AB
:1058100000F0E3FB394600F0D8FB216800F084FB80
:10582000761C2060042EE8DD0BB0F0BDB8750020BA
:10583000EC82002070B5764C06460025A16C00F085
:10584000D9FD01D2A6640EE03046E16C00F0D2FD35
:1058500000D2E664206DFF21401CF53120658842AE
:1058600003DBE06CA0642565E564A06C70BD70B5D9
:10587000002506462C46A0003058014600F0ADFB3E
:10588000294600F051FB641C05460A2CF3DB6149F4
:1058900000F0E0FB00F06AFD01F0AEF900F08EFDD3
:1058A00070BDFEB55A4900228A654A68002A05D1B2
:1058B0008860C860012248614A608861544C05468E
:1058C000A168E160A06000F080FB20610290266A80
:1058D000E66100F04BFD504A504B01F0F3F80090A8
:1058E0000191304600F042FD0F4606464A4A4B4BB6
:1058F00001F0E8F8019B009A00F0EAFB00F05EFD81
:1059000020626069A061009030463946444A454BA8
:1059100001F0D8F806460F46009800F027FD424AED
:10592000424B01F0CFF832463B4600F0D1FB00F08D
:1059300045FD60610190009900F047FB002363651D
:105940008446606220466030014606462831503663
:10595000024678329C0027187F68075167187F68D5
:105960000F51A7197F683751A7187F685B1C175123
:10597000092BEFDB264C63659B00C550019DCD5084
:10598000029DF5506546D550006860630868A063C5
:105990003068E063106860642046D830FFF767FF26
:1059A000A062FFF747FFA06400F0E0FC204A214B13
:1059B00001F088F805460E46A06A00F0D7FC334691
:1059C0002A4600F0E7FC16D20120216CC005814276
:1059D00011DBE16B81420EDAFF21A06BC905C842E1
:1059E00009D27D21206BC9004843491000F098FF7F
:1059F000A06500202063606C2064A06BE065E06A15
:105A0000401CE062206B401C2063A06DFEBD0000C6
:105A10007883002000002041E6FE7CEC1BD6EE3FA0
:105A2000FE15566CC488D13F01F5D4C99D3BE73FB4
:105A3000CDCCCCCCCCCCE43F10B51021264800F026
:105A4000F9FF2649372000F0FBFF0021372000F046
:105A50004DFE10BD70B5204D06462988042337221F
:105A60001F4800F0DFFE0446287900F0D7FF2080B1
:105A7000A670204600F0E8FE70BDF8B50746081D88
:105A800083B2154E16480D4631883722401C00F06F
:105A9000C9FE0446307900F0C1FF208065802A46A7
:105AA0003946201D00F06EFD204600F0CDFEF8BD09
:105AB00070B50646084D0A48298804233722C01CC1
:105AC00000F0B0FE0446287900F0A8FF2080A67000
:105AD000204600F0B9FE70BDA88600207477002033
:105AE00005DC00007CB5894E372171801D46884950
:105AF00033460092019108330D220021B01DFCF7BE
:105B0000CDFF040007D1F088002100F0ABFF012198
:105B1000372000F0EBFD0423372229467D4800F0B2
:105B200081FE847000F090FE00207CBD70B51E46A2
:105B30000D46088800F0A2FF744CFF2820712680D3
:105B400018D0A978E08800F08DFF0221372000F0FE
:105B5000CDFD0120E07220730020A073E0736D483A
:105B6000218801233722801C00F05CFE00F06CFECF
:105B7000002070BD674B89215B1CDA1D6348FDF76F
:105B800026F8F5E710B561480021C08800F06AFFEB
:105B90000121372000F0AAFD002010BD10B50878C3
:105BA00012280ED15948827B521E1206120E8273A1
:105BB00007D1C27B002A04D00022C2734878FFF7C5
:105BC00049FF002010BD70B5504C4B88E0880A1D7D
:105BD000801C80B2194600F015FFE07A01250028EC
:105BE0000BD0E0880021801C82B22046FDF705F82A
